:100000000C9446000C9465000C9465000C946500FB
:100010000C9465000C9465000C9465000C946500CC
:100020000C9465000C9465000C9465000C946500BC
:100030000C9465000C940C010C9465000C94650004
:100040000C9465000C9465000C9465000C9465009C
:100050000C9465000C9465000C9465000C9465008C
:100060000C9465000C9465000C9465000C9465007C
:100070000C9465000C9465000C9465000C9465006C
:100080000C9465000C9465000C94650011241FBE4F
:10009000CFEFD0E4DEBFCDBF11E0A0E0B1E0E2E8F9
:1000A000F9E000E00BBF02C007900D92A431B10748
:1000B000D9F721E0A4E1B1E001C01D92A832B20756
:1000C000E1F70E9453040C94BF040C940000CF93FA
:1000D000DF9300D01F92CDB7DEB789837B836A831D
:1000E00089818A3031F48A819B81BC018DE00E9434
:1000F000670080EC90E0FC018081882F90E08072A6
:100100009927892BB1F386EC90E02981FC012083AB
:1001100080E090E00F900F900F90DF91CF910895C5
:10012000CF93DF9300D000D0CDB7DEB769837A8359
:100130008B839C8389819A81AB81BC8180930E01E2
:1001400090930F01A0931001B093110180910E01C3
:1001500090910F01A0911001B091110180931501B0
:1001600090931601A0931701B093180100000F900F
:100170000F900F900F90DF91CF910895CF93DF9361
:10018000CDB7DEB781E890E02BE0FC01208388E862
:1001900090E02DE730E0FC01318320838FE690E092
:1001A00022E0FC01208384E890E0FC0111821082AF
:1001B00080910E0190910F01A0911001B091110159
:1001C0008093150190931601A0931701B093180125
:1001D0008FE590E02FE530E0F90120812068FC01F7
:1001E00020830000DF91CF910895CF93DF93CDB7A7
:1001F000DEB781E890E0FC0110820000DF91CF9132
:100200000895CF93DF93CDB7DEB781E080931401DB
:100210000000DF91CF9108951F920F9200905F0030
:100220000F92112400905B000F922F933F934F93F6
:100230005F936F937F938F939F93AF93BF93EF934E
:10024000FF93CF93DF93CDB7DEB7809115019091E7
:100250001601A0911701B09118010197A109B109E8
:100260008093150190931601A0931701B093180184
:100270008091150190911601A0911701B09118017C
:10028000892B8A2B8B2B91F40E94010180910E0106
:1002900090910F01A0911001B0911101809315016F
:1002A00090931601A0931701B09318010000DF91FD
:1002B000CF91FF91EF91BF91AF919F918F917F91DE
:1002C0006F915F914F913F912F910F9000925B0042
:1002D0000F9000925F000F901F901895CF93DF93BF
:1002E000CDB7DEB78091200190912101892B29F0B3
:1002F000109221011092200101C000008091200184
:1003000090912101892B09F02CC0809112019091CC
:1003100013012AE030E0B9010E949704892B31F4DF
:100320008091190181608093190105C080911901A4
:100330008E7F809319018091120190911301019693
:1003400090931301809312018091120190911301F7
:100350000B9734F081E090E09093130180931201A9
:1003600000000000DF91CF910895CF93DF93CDB7C8
:10037000DEB780912401909125018130910519F11A
:100380008130910520F0029709F43FC072C080E2ED
:1003900090E0FC018081882F90E080959095959564
:1003A00087959595879595958795892B39F481E063
:1003B00090E0909325018093240160C01092250164
:1003C000109224015BC080E290E0FC018081882FC4
:1003D00090E08095909595958795959587959595BD
:1003E0008795892B59F410921C0110921B0182E011
:1003F00090E0909325018093240140C081E090E03B
:10040000909325018093240139C080E290E0FC01A3
:100410008081882F90E0809590959595879595950A
:10042000879595958795892B59F080911B0190911F
:100430001C010A972CF410922501109224011EC071
:1004400080911B0190911C010A974CF010921C01A5
:1004500010921B0110922501109224010FC080916F
:100460001B0190911C01019690931C0180931B012C
:1004700005C01092250110922401000080912401F2
:1004800090912501009719F0019749F011C08091D2
:1004900019018D7F8093190110921A0109C0809172
:1004A000190182608093190181E080931A01000094
:1004B0000000DF91CF910895CF93DF93CDB7DEB7E2
:1004C0008091260190912701892B09F001C000003D
:1004D0008091260190912701892B09F001C000002D
:1004E0000000DF91CF910895CF93DF93CDB7DEB7B2
:1004F000809122019091230181309105E9F08130B2
:10050000910538F082309105F1F0039709F4D9C0D4
:1005100092C180911A01813051F480911D01082E01
:10052000000C990B909323018093220189C11092B2
:1005300023011092220184C182E090E09093230174
:10054000809322017DC180911D01882399F480E26E
:1005500090E0FC018081882F90E0809590958770D5
:100560009927049739F483E090E0909323018093D6
:100570002201A6C080911D01813099F480E290E0B3
:10058000FC018081882F90E0809590958770992755
:10059000059739F483E090E0909323018093220142
:1005A0008FC080911D01823099F480E290E0FC01BF
:1005B0008081882F90E08095909587709927069785
:1005C00039F483E090E0909323018093220178C076
:1005D00080911D01833099F480E290E0FC018081DC
:1005E000882F90E08095909587709927079739F428
:1005F00083E090E0909323018093220161C0809179
:100600001D01843099F480E290E0FC018081882F04
:1006100090E08095909587709927892B39F483E035
:1006200090E090932301809322014AC080911D01A4
:10063000853099F480E290E0FC018081882F90E081
:100640008095909587709927019739F483E090E021
:10065000909323018093220133C080911D01863045
:1006600099F480E290E0FC018081882F90E08095F1
:10067000909587709927029739F483E090E09093E2
:100680002301809322011CC080911D01873099F4C1
:1006900080E290E0FC018081882F90E08095909529
:1006A00087709927039739F483E090E090932301B2
:1006B0008093220105C01092230110922201C0C034
:1006C000BFC080911D01882391F480E290E0FC017D
:1006D0008081882F90E08095909587709927049766
:1006E00031F4809119018460809319019FC0809139
:1006F0001D01813091F480E290E0FC018081882F1F
:1007000090E08095909587709927059731F48091B6
:10071000190184608093190189C080911D01823084
:1007200091F480E290E0FC018081882F90E0809538
:10073000909587709927069731F48091190184600C
:100740008093190173C080911D01833091F480E280
:1007500090E0FC018081882F90E0809590958770D3
:100760009927079731F480911901846080931901CA
:100770005DC080911D01843091F480E290E0FC0125
:100780008081882F90E08095909587709927892B9C
:1007900031F48091190184608093190147C08091E0
:1007A0001D01853091F480E290E0FC018081882F6A
:1007B00090E08095909587709927019731F480910A
:1007C000190184608093190131C080911D01863028
:1007D00091F480E290E0FC018081882F90E0809588
:1007E000909587709927029731F480911901846060
:1007F000809319011BC080911D01873091F480E224
:1008000090E0FC018081882F90E080959095877022
:100810009927039731F4809119018460809319011D
:1008200005C0809119018B7F8093190110922301DB
:100830001092220105C010922301109222010000A3
:100840008091220190912301892B09F006C08091AB
:1008500019018B7F8093190100000000DF91CF9177
:100860000895CF93DF93CDB7DEB780911E019091AD
:100870001F01892B29F010921F0110921E0101C047
:10088000000080911E0190911F01892B09F007C083
:1008900085E290E020911901FC0120830000000016
:1008A000DF91CF910895CF93DF93CDB7DEB781E28B
:1008B00090E0FC01108282E290E02FEFFC012083A7
:1008C00084E290E02FEFFC01208385E290E0FC01C0
:1008D000108264E670E080E090E00E9490000E9448
:1008E000BE00109221011092200110922501109259
:1008F00024011092270110922601109223011092D8
:10090000220110921F0110921E010E946E010E948E
:10091000B5010E945C020E9474020E943104000032
:10092000809114018823E1F310921401EECF97FB1C
:10093000072E16F4009407D077FD09D00E94AB046F
:1009400007FC05D03EF4909581959F4F08957095D2
:1009500061957F4F0895AA1BBB1B51E107C0AA1FD9
:10096000BB1FA617B70710F0A61BB70B881F991F50
:100970005A95A9F780959095BC01CD010895F894FA
:02098000FFCFA7
:1009820000000002000000006700000000000100FB
:040992000000010060
:00000001FF
